:0400000080313528EE
:100008007E14803120007F08F7000B1D30280B0874
:10001800FB398B007D088600870104308107413158
:100028000318810A0930F0003D30F1007D08860090
:100038008701403FF200413FF30085318F25803131
:1000480070087104031D30287C0886008701013080
:10005800810741310318810A77082000FF007E10CC
:100068000900803137288731AD278031FC0087317E
:10007800AE278031FD008731AF27ED00F801F90187
:10008800FA01FB01EB01EC017E10200080314C28C5
:1000980021001508073895000B08FB39A0388B009C
:1000A80086314D2680314E302000E800EB30890B38
:1000B8005B28E80B5B286A30210099002030230078
:1000C8008E0020000E132100B001B10185314925B1
:1000D800803187319B2780312000A301A30A01309A
:1000E8008531D425803166302000A5008730A600F0
:1000F80087311C2780310B302000E9002630E800CA
:100108005D30890B8528E80B8528E90B85280032A6
:1001180020000E130130DC000030DD004130833157
:100128007023803120005D082100B30020005C08A6
:100138002100B20002302000DC000030DD00413038
:1001480083317023803120005D082100B500200034
:100158005C082100B40033082000B20021003208F6
:100168002000B1000A30B3000030B400A03086315E
:10017800D6268031210035082000B200210034083D
:100188002000B1000A30B3000030B400A830863136
:10019800D626803121003308803A2000E8008030DC
:1001A8006802031DDA28643021003202031841294D
:1001B80021003508803A2000E80080306802031DDD
:1001C800E8286430210034020318412920006D0812
:1001D8008600870116000104031DF32987319B2738
:1001E80080312000A301A30A01308531D425803154
:1001F80090302000A5008730A60087311C27803169
:100208002000A301A30A02308531D4258031A03013
:100218002000A5000030A60087311C278031A330BC
:100228002000A5008730A60087311C278031A83020
:100238002000A5000030A60087311C278031A93096
:100248002000A5008730A60087311C2780310630A2
:100258002000E9001330E800AD30890B3129E80BA4
:100268003129E90B3129003220006D088600870109
:100278000130C03F0030C13FF32921003308803AE4
:100288002000E80080306802031D4D2965302100F8
:100298003202031CAB2921003508803A2000E8000F
:1002A80080306802031D5B29653021003402031C7D
:1002B800AB2920006D08860087010030C03FC13F90
:1002C80087319B2780312000A301A30A01308531A3
:1002D800D425803176302000A5008730A6008731EC
:1002E8001C2780312000A301A30A02308531D425C0
:1002F8008031A0302000A5000030A60087311C27DF
:100308008031A3302000A5008730A60087311C2744
:100318008031A8302000A5000030A60087311C27B6
:100328008031A9302000A5008730A60087311C271E
:10033800803106302000E9001330E800AD30890B29
:10034800A329E80BA329E90BA3290032F3292000EC
:100358008C1287319B2780312000A301A30A01302A
:100368008531D425803185302000A5008730A6004E
:1003780087311C2780312000A301A30A0230853170
:10038800D4258031A0302000A5000030A600873198
:100398001C278031A3302000A5008730A6008731B4
:1003A8001C278031A8302000A5000030A600873126
:1003B8001C278031A9302000A5008730A60087318E
:1003C8001C27803106302000E9001330E800AD30EA
:1003D800890BEC29E80BEC29E90BEC290032210008
:1003E800B009B1097C0886008701403F2000E80079
:1003F800413FE9006908803AEA0080306A02031D3B
:10040800072A33306802031C8C28200020308C0611
:100418006D08860087010030C03FC13F8C2820004E
:100428003E08C4003F08C5004008C6000310450D3B
:10043800460DC7004708C8004808031D2A2A00308F
:10044800BE000030BF000030C00008004108C400F2
:100458004208C5004308C6000310450D460DC700F5
:100468004708CD004D08031D402A0030BE0000306B
:10047800BF000030C00008004D087B3EC40044089F
:10048800C8073E08C4003F08C5004008C600103031
:10049800C636C50CC40C890B4C2A4408C70047084B
:1004A800CD004108C4004208C5004308C60010300A
:1004B800C636C50CC40C890B5C2A4408C70047081B
:1004C800CD068030C4004408CD05BF17C217FF30E1
:1004D800C105FF30C2050030C3050030C900003037
:1004E800CA000030CB000730C4004408CC003E1CD2
:1004F800832A4108C9074208CA3D4308CB3D013059
:10050800C036BF0CBE0C890B842A0130C135C20D20
:10051800C30D890B8A2A0130CC02031D7B2A0930BE
:10052800C4004408CC003E1C9F2A4108C907420861
:10053800CA3D4308CB3D0130C036BF0CBE0C890B09
:10054800A02A0130CB36CA0CC90C890BA62A013067
:10055800CC02031D972A4908A0004A08A1004B08AD
:10056800A2004808C4004408A3004D08C500450877
:10057800A4008431822420002008BE002108BF0086
:100588002208C000080020003108B4003208B50075
:100598003308B6000310350D360DB7003708BC0018
:1005A8003C08031DDE2A0030AE000030AF000030EA
:1005B800B00008002E08B4002F08B5003008B600B7
:1005C8000310350D360DB7003708BD003D08031D73
:1005D800F42A0030AE000030AF000030B000080050
:1005E8000030B9000030BA000030BB0089303D0748
:1005F800B4003408BC023108B4003208B50033082E
:10060800B6001030B636B50CB40C890B062B34087E
:10061800B7003708BD002E08B4002F08B500300811
:10062800B6001030B636B50CB40C890B162B34084E
:10063800B7003708BD068030B4003408BD05B217CE
:10064800FF30B105FF30B2050030B305AF17FF30FA
:10065800AE05FF30AF050030B0051830B4003408DF
:10066800B8000130B935BA0DBB0D890B362B3008EF
:100678003302031D452B2F083202031D452B2E087C
:100688003102031C4E2B2E08B1022F08B23B300852
:10069800B33B39140130B135B20DB30D890B4F2B73
:1006A8000130B802031D352B3908A0003A08A10013
:1006B8003B08A2003C08B4003408A3003D08B5007C
:1006C8003508A4008431822420002008AE002108C7
:1006D800AF002208B00008002000DF00802B0030A7
:1006E800E1000C307E2B0030E1000D307E2B003015
:1006F800E1000E30E0008B2B5F08413A0319732BA1
:10070800033A0319772B013A03197B2B8B2B1030F3
:100718009800970196010C140630890B912B003232
:1007280020000C1060088600610887000130DE0098
:100738005C0A9F2BDE35890B9E2B5E080105031989
:10074800962B181460088600610887000130DE00C7
:100758005C0AAF2BDE35890BAE2B5E080105031D45
:10076800A62B18101708E3001608E2006308A90072
:100778006208A8008631FA26833120002808B100D3
:100788002908B2002A08B3004830AE006B30AF0029
:100798004230B0008231C722833120002E08C100C8
:1007A8002F08C2003008C3000030BE000030BF0070
:1007B8004030C00082311322833120003E08CE0031
:1007C8003F08CF004008D0008331FB2320004F08AA
:1007D800E3004E08E2006208013EE2000030633D9B
:1007E800E30098016308DD006208DC0008002000CF
:1007F8004E08D2004F08D3005008D4000310530D00
:10080800540DD5005508DB005B08031D142C00307F
:10081800D1000030D0000030CF000030CE000800FA
:100828004E08D2004F08D3005008D4001730D436F1
:10083800D30CD20C890B1B2C5208D5005508D600B6
:10084800CF17FF30CE05FF30CF050030D0054E085A
:10085800D7004F08D8005008D900DA018E30DB02E3
:10086800DB1F522C5B08803A8F3E0318442C003063
:10087800D1000030D0000030CF000030CE0008009A
:100888000130DA36D90CD80CD70C890B452C01303D
:10089800D2005208DB0703196B2C442C18305B027A
:1008A800031C682C0030D1000030D0000030CF008D
:1008B8000030CE0008000130D735D80DD90DDA0D3B
:1008C800890B602C0130DB025B08031D5F2C560886
:1008D8000319792CD709D809D909DA09D70A0319CC
:1008E800D80A0319D90A0319DA0A5A08D10059088B
:1008F800D0005808CF005708CE0008002000230871
:1009080003198B2C220821042004031D9C2C003081
:10091800A0000030A1000030A20008000130A500AE
:100928002508A3070130A236A10CA00C890B972C2F
:10093800FE3022050319B52C922C0130A50025089C
:10094800A3070130A007003003180130A1070030C9
:1009580003180130A2070130A236A10CA00C890BA4
:10096800B02CFF3022050319C22CA12C0130A302A0
:100978000130A035A10DA20D890BBD2CA11BC82CDF
:10098800023023020318BA2C2318D02CFF30A005FC
:100998007F30A105FF30A2050310A30C2308A50092
:1009A800A601A7011030A535A60DA70D890BD72CD8
:1009B8002508A0042608A1042708A204240803196E
:1009C8000800A21708002000B0002908AE00280877
:1009D800AD002B08A1002A08A0002E08A3002D08AE
:1009E800A20086311826843120002108AE00200894
:1009F800AD000130AC002C08B0072D082E04031DF3
:100A0800ED2C30088600870181010130B0022B08E7
:100A1800A1002A08A0002908A3002808A2008631FE
:100A2800A926843120002008AC002C08AF002B0830
:100A3800A1002A08A0002908A3002808A2008631DE
:100A48001826843120002108A9002008A8000A30AF
:100A58002F02031C332D0730AC002C08AF073030B1
:100A6800AC002C08AF072F08AC00300886008701BF
:100A78002C0881000130B00228082904031D0B2D21
:100A88000130AC002C08B0070800003087314F2730
:100A9800853134302000A300F130890B512DA30B90
:100AA800512D003203308731382785310D30200031
:100AB800A300FB30890B5E2DA30B5E2D00320330A3
:100AC8008731382785311D302000A3009130890BEC
:100AD8006B2DA30B6B2D03308731382785310230FE
:100AE80087313827853102308731382785310830FA
:100AF80087313827853100308731382785310C30E8
:100B080087313827853100308731382785310630DD
:100B1800873138270800F601F31F992DF209F309E8
:100B2800F20A0319F30AF601F60AF11FA02DF009DB
:100B3800F109F00A0319F10A700871040319C72DA5
:100B4800F501F50AF11BB22D0130F035F10D890BD5
:100B5800A92D0130F4007408F507A62D7108730259
:100B6800031DB82D70087202031CBE2D7008F20216
:100B78007108F33B0130F136F00C890BBF2D0130C1
:100B8800F502031DB22D76080319CF2DF209F309DA
:100B9800F20A0319F30A7308F1007208F00008005A
:100BA8002000A6002603031DF62D23087F3EA4007F
:100BB8002408A9002908A4000430A436890BE12DD3
:100BC8002408A5002508A70029080F39A40024082F
:100BD800A800270887313827853120002808873161
:100BE80038270800023020002606031D08002308C5
:100BF800BF3EA4002408A9002908A4000430A43694
:100C0800890B032E2408A5002508A70029080F39F9
:100C1800A4002408A8002708873138278531200038
:100C280028088731382708002000A501A6012008D8
:100C380021040319482EA701A70AA11B2D2E013054
:100C4800A035A10D890B242E0130A4002408A70784
:100C5800212E0130A535A60D890B2E2E2108230241
:100C6800031D382E20082202031C3F2E2008A20252
:100C78002108A33B25140130A136A00C890B402E76
:100C88000130A702031D2D2E2608A1002508A0006B
:100C98000800063021008C0023008C01F030210070
:100CA8008D0023008D01A63021008E0023008E01C7
:100CB8006A302100990022001D159D17203023005D
:100CC8008E00063021008C0023008C0121000D08C5
:100CD8000F398D0023000D080F398D0021000E08F3
:100CE800B6398E0023000E08B6398E0008002000A1
:100CF800A4000E1324080F39A1002108A20024081B
:100D0800F039A1002108A3000E142308A100043023
:100D1800A136890B8C2E210887314F278631200078
:100D28008E151A30890B962E003220008E1122085B
:100D380087314F27863120008E151A30890BA22E55
:100D4800003220008E110E17080020002008210410
:100D58000319D12EA501A50AA11BBC2E0130A0356F
:100D6800A10D890BB32E0130A4002408A507B02ECD
:100D780021082302031DC22E20082202031CC82EAC
:100D88002008A2022108A33B0130A136A00C890B40
:100D9800C92E0130A502031DBC2E2308A10022087C
:100DA800A00008002000B7003708B5003508B600D5
:100DB800B21FEE2E2D30B5003708860087013508A2
:100DC80081000130B5003508B707B109B209B10A89
:100DD8000319B20A3208A9003108A8003408AB0088
:100DE8003308AA0037088431E72408002000AD0141
:100DF800A91F052FA809A909A80A0319A90AAD015D
:100E0800AD0A2808A0002908A100A2018E30AB0075
:100E18002B08A3002D08AC002C08A40084318224E0
:100E280020002008A8002108A9002208AA0008001C
:100E38002000A801A9012508280784002608293DC3
:100E480085001200031908002508280784002608D1
:100E5800293D8500000886317B2687310130200036
:100E6800A8070030A93D1F2F2000A2000E130E1066
:100E7800220887314F27873120008E150B3020003C
:100E8800A1006230890B462FA10B462F00002000DD
:100E98008E110E1708002000A000201C552F0D16DB
:100EA800562F0D12A01C5A2F8D165B2F8D12201D48
:100EB8005F2F0D17602F0D13A01D642F8D170800CD
:100EC8008D130800573445344C3443344F344D3473
:100ED8004534203454344F34203455345434533446
:100EE800413400344F347534743420346F346634EC
:100EF8002034523461346E34673465343A342034E3
:100F08000034443469347334743461346E34633473
:100F180065343A342034003449346E342034723421
:100F280061346E34673465343A3420340034003028
:100F38008731382787310130873138270800203436
:100F480063346D342C3420340034203463346D34ED
:080F5800003478347A346B3464
:020000040001F9
:04000E00E4C9FFDE64
:00000001FF
