:08000000803102288731FD2F39
:10026400003081313A218131013081313A21080055
:10027400F20020000E130E107208813150218131DA
:1002840020008E150B30F1006230890B4729F10BE9
:100294004729003220008E110E170800F000701C50
:1002A400562920000D16582920000D12F01C5C2937
:1002B4008D165D298D12701D61290D1762290D138C
:1002C400F01D66298D1708008D130800F801F90147
:1002D4007508780784007608793D850012000319B3
:1002E40008007508780784007608793D85000008C1
:1002F4008131F22181310130F8070030F93D6A295A
:10030400FD01F91F8C29F809F909F80A0319F90AFA
:10031400FD01FD0A7808F0007908F100F2018E3041
:10032400FB007B08F3007D08FC007C08F4008331AB
:1003340066237008F8007108F9007208FA000800D2
:100344002000A9002908FD007D08A800A51FBA29DE
:100354002D30FD002908860087017D0881000130C9
:10036400FD007D08A907A409A509A40A0319A50A83
:100374002508F9002408F8002708FB002608FA00DD
:100384002908833104230800700871040319ED2936
:10039400F501F50AF11BD8290130F035F10D890B6F
:1003A400CF290130F4007408F507CC2971087302D1
:1003B400031DDE2970087202031CE4297008F2028E
:1003C4007108F33B0130F136F00C890BE52901305B
:1003D400F502031DD8297308F1007208F000080023
:1003E400F40020000E1374080F39F1007108F200B4
:1003F4007408F039F1007108F3000E147308F10069
:100404000430F136890B032A71088131502181317E
:1004140020008E151A30890B0D2A003220008E110F
:10042400720881315021813120008E151A30890BD8
:10043400192A003220008E110E1708000630210000
:100444008C0023008C01F03021008D0023008D01ED
:10045400A63021008E0023008E016A30210099000D
:1004640022001D159D17203023008E000630210028
:100474008C0023008C0121000D080F398D0023000E
:100484000D080F398D0021000E08B6398E002300A7
:100494000E08B6398E000800F501F60170087104E3
:1004A40003197D2AF701F70AF11B622A0130F0359E
:1004B400F10D890B592A0130F4007408F707562A04
:1004C4000130F535F60D890B632A71087302031D9B
:1004D4006D2A70087202031C742A7008F2027108F3
:1004E400F33B75140130F136F00C890B752A013099
:1004F400F702031D622A7608F1007508F00008006F
:10050400F6007603031DA22A73087F3EF4007408E4
:10051400F9007908F4000430F436890B8E2A740843
:10052400F5007508F70079080F39F4007408F8002D
:10053400770881313A218231780881313A210800E3
:1005440002307606031D08007308BF3EF4007408E9
:10055400F9007908F4000430F436890BAE2A7408E3
:10056400F5007508F70079080F39F4007408F800ED
:10057400770881313A218231780881313A210800A3
:1005840000308131502182313430F300F230890B54
:10059400C92AF30BC92A033081313A2182310D3043
:1005A400F300FC30890BD42AF30BD42A03308131B5
:1005B4003A2182311D30F3009130890BDF2AF30B8D
:1005C400DF2A0000033081313A2182310230813147
:1005D4003A218231023081313A218231083081312D
:1005E4003A218231003081313A2182310C3081311B
:1005F4003A218231003081313A2182310630813111
:100604003A2108002000A3007908A1007808A0007E
:100614007B08F1007A08F0002108F3002008F200BA
:1006240082314E22833171082000A1007008A0009D
:100634000130FC007C08A30720082104031D0A2BB9
:1006440023088600870181010130A3027B08F100A1
:100654007A08F0007908F3007808F2008131C621A5
:1006640083317008FC007C082000A2007B08F100A4
:100674007A08F0007908F3007808F20082314E22FB
:1006840083317108F9007008F8000A302000220252
:10069400031C502B0730FC007C08A2073030FC0000
:1006A4007C08A2072208FC002308860087017C0836
:1006B40081000130A30278087904031D282B01303E
:1006C400FC007C08A3070800730803196E2B72084A
:1006D40071047004031D7F2B0030F0000030F10022
:1006E4000030F20008000130F5007508F30701300E
:1006F400F236F10CF00C890B7A2BFE3072050319DB
:10070400982B752B0130F5007508F3070130F007BD
:10071400003003180130F107003003180130F207EC
:100724000130F236F10CF00C890B932BFF3072057B
:100734000319A52B842B0130F3020130F035F10DA0
:10074400F20D890BA02BF11BAB2B023073020318A3
:100754009D2B7318B32BFF30F0057F30F105FF306C
:10076400F2050310F30C7308F500F601F7011030DD
:10077400F535F60DF70D890BBA2B7508F0047608DC
:10078400F1047708F204740803190800F21708004A
:1007940020004008C4004108C5004208C6000310F8
:1007A400450D460DC7004708CD004D08031DE32B3A
:1007B4000030C3000030C2000030C1000030C0006F
:1007C40008004008C4004108C5004208C6001730AC
:1007D400C636C50CC40C890BEA2B4408C70047086D
:1007E400C800C117FF30C005FF30C1050030C20585
:1007F4004008C9004108CA004208CB00CC018E3031
:10080400CD02CD1F212C4D08803A8F3E0318132CA6
:100814000030C3000030C2000030C1000030C0000E
:1008240008000130CC36CB0CCA0CC90C890B142C33
:100834000130C4004408CD0703193A2C132C183096
:100844004D02031C372C0030C3000030C2000030BE
:10085400C1000030C00008000130C935CA0DCB0DFD
:10086400CC0D890B2F2C0130CD024D08031D2E2CED
:1008740048080319482CC909CA09CB09CC09C90A73
:100884000319CA0A0319CB0A0319CC0A4C08C3007A
:100894004B08C2004A08C1004908C00008002000F3
:1008A400D100612C0030D3000C305F2C0030D30019
:1008B4000D305F2C0030D3000E30D2006C2C510868
:1008C400413A0319542C033A0319582C013A0319D9
:1008D4005C2C6C2C10309800970196010C14063097
:1008E400890B722C003220000C1052088600530829
:1008F40087000130D0004E0A802CD035890B7F2C24
:10090400500801050319772C18145208860053085F
:1009140087000130D0004E0A902CD035890B8F2CE3
:1009240050080105031D872C18101708D500160858
:10093400D4005508F9005408F8008131822184312B
:1009440078082000A3007908A4007A08A50048309C
:10095400A0006B30A1004230A2008431DC24843139
:1009640020002008B3002108B4002208B50000309C
:10097400B0000030B1004030B200853185258431AB
:1009840020003008C0003108C1003208C2008331A1
:10099400CA2320004108D5004008D4005408013E71
:1009A400D4000030553DD50098015508CF005408B7
:1009B400CE00080020002308A6002408A70025086C
:1009C400A8000310270D280DA9002908AE002E0841
:1009D400031DF32C0030A0000030A1000030A20061
:1009E40008002008A6002108A7002208A800031078
:1009F400270D280DA9002908AF002F08031D092D74
:100A04000030A0000030A1000030A2000800003037
:100A1400AB000030AC000030AD0089302F07A600D9
:100A24002608AE022308A6002408A7002508A8006B
:100A34001030A836A70CA60C890B1B2D2608A9007C
:100A44002908AF002008A6002108A7002208A80052
:100A54001030A836A70CA60C890B2B2D2608A9004C
:100A64002908AF068030A6002608AF05A417FF307A
:100A7400A305FF30A4050030A505A117FF30A0058C
:100A8400FF30A1050030A2051830A6002608AA00F0
:100A94000130AB35AC0DAD0D890B4B2D2208250271
:100AA400031D5A2D21082402031D5A2D2008230258
:100AB400031C632D2008A3022108A43B2208A53BA4
:100AC4002B140130A335A40DA50D890B642D013021
:100AD400AA02031D4A2D2B08F0002C08F1002D0852
:100AE400F2002E08A6002608F3002F08A700270806
:100AF400F4008331662370082000A0007108A1006F
:100B04007208A200080020003008B6003108B700BF
:100B14003208B8000310370D380DB9003908BA008F
:100B24003A08031D9C2D0030B0000030B1000030A5
:100B3400B20008003308B6003408B7003508B8001E
:100B44000310370D380DB9003908BF003F08031DE5
:100B5400B22D0030B0000030B1000030B200080007
:100B64003F087B3EB6003608BA073008B6003108A5
:100B7400B7003208B8001030B836B70CB60C890B81
:100B8400BE2D3608B9003908BF003308B600340852
:100B9400B7003508B8001030B836B70CB60C890B5E
:100BA400CE2D3608B9003908BF068030B6003608A5
:100BB400BF05B117B417FF30B305FF30B4050030DB
:100BC400B5050030BB000030BC000030BD0007306C
:100BD400B6003608BE00301CF52D3308BB073408B8
:100BE400BC3D3508BD3D0130B236B10CB00C890BAB
:100BF400F62D0130B335B40DB50D890BFC2D013044
:100C0400BE02031DED2D0930B6003608BE00301CAF
:100C1400112E3308BB073408BC3D3508BD3D0130F7
:100C2400B236B10CB00C890B122E0130BD36BC0C9F
:100C3400BB0C890B182E0130BE02031D092E3B0884
:100C4400F0003C08F1003D08F2003A08B60036080E
:100C5400F3003F08B7003708F400833166237008B7
:100C64002000B0007108B1007208B200080082319F
:100C7400202286314E302000DA00EB30890B402EE2
:100C8400DA0B402E6A3021009900203023008E00B8
:100C940020000E132100B501B601B5302000DA00A2
:100CA4005A082100BB00B201B301B2302000DA00BF
:100CB4005A082100B400B001B1018231C222863148
:100CC400813132218631F301F30A013082318222EB
:100CD40086310030F5008830F60081316821863194
:100CE4000B302000DB002630DA005D30890B782ED3
:100CF400DA0B782EDB0B782E003220000E13013035
:100D0400CE000030CF0041308431512486312000A0
:100D14004F082100B80020004E082100B70002301F
:100D24002000CE000030CF00413084315124863180
:100D340020004F082100BA0020004E082100B9000D
:100D440038082000A500210037082000A4000A303C
:100D5400A6000030A700A0308131A22186312100F5
:100D64003A082000A500210039082000A4000A3018
:100D7400A6000030A700A8308131A22186312100CD
:100D84003808803A2000DA0080305A02031DCD2E44
:100D94006430210037020318322F21003A08803AC8
:100DA4002000DA0080305A02031DDB2E643021005B
:100DB40039020318322F02302000DA005A082100C9
:100DC400B4073B088600870116000104031DDC2FCD
:100DD400813132218631F301F30A013082318222DA
:100DE40086312A30F5008830F60081316821863159
:100DF400F301F30A0230823182228631A030F500F9
:100E04000030F6008131682186313530F5008830B4
:100E1400F600813168218631A830F5000030F600F3
:100E24008131682186313B30F5008830F60081310C
:100E34006821863106302000DB001330DA00AD3043
:100E4400890B222FDA0B222FDB0B222F00322100F9
:100E54003B08860087010130C03F0030C13FDC2FD2
:100E640021003808803A2000DA0080305A02031D3D
:100E74003E2F653021003702031C9B2F21003A08C6
:100E8400803A2000DA0080305A02031D4C2F65306E
:100E940021003902031C9B2F21003408860087019E
:100EA4000030C03FC13F3B08860087010030C03F8F
:100EB400C13F813132218631F301F30A013082319D
:100EC400822286311030F5008830F60081316821A5
:100ED4008631F301F30A0230823182228631A03056
:100EE400F5000030F6008131682186313530F50097
:100EF4008830F600813168218631A830F500003051
:100F0400F6008131682186313B30F5008830F600E7
:100F140081316821863106302000DB001330DA008D
:100F2400AD30890B932FDA0B932FDB0B932F003209
:100F3400DC2F20008C12813132218631F301F30A37
:100F440001308231822286311F30F5008830F6006C
:100F5400813168218631F301F30A02308231822221
:100F64008631A030F5000030F600813168218631E9
:100F74003530F5008830F600813168218631A8309B
:100F8400F5000030F6008131682186313B30F500F0
:100F94008830F60081316821863106302000DB007C
:100FA4001330DA00AD30890BD52FDA0BD52FDB0BDC
:100FB400D52F00322100B009B10934088600870119
:100FC400403F2000DA00413FDB005B08803ADC0050
:100FD40080305C02031DF02F33305A02031C7F2E35
:100FE400200020308C0621003B0886008701003059
:100FF400C03FC13F7F2E20008631392E57344534FF
:101004004C3443344F344D344534203454344F3409
:101014002034553454345334413400344F3475340B
:10102400743420346F3466342034523461346E3472
:10103400673465343A3420340034443469347334C6
:10104400743461346E34633465343A342034003497
:1010540049346E342034723461346E346734653408
:101064003A3420340034203463346D342C34203446
:0A1074000034203463346D3400347E
:020000040001F9
:04000E00E4C9FFDE64
:00000001FF
