:08000000803102288731FD2F39
:100242000030813129218131013081312921080099
:10025200F20020000E130E10720881313F2181310D
:1002620020008E150B30F1006230890B3629F10B1C
:100272003629003220008E110E170800F000701C83
:10028200452920000D16472920000D12F01C4B298C
:100292008D164C298D12701D50290D1751290D13E1
:1002A200F01D55298D1708008D130800F801F9017A
:1002B2007508780784007608793D850012000319D5
:1002C20008007508780784007608793D85000008E3
:1002D2008131E12181310130F8070030F93D59299E
:1002E200FD01F91F7B29F809F909F80A0319F90A2E
:1002F200FD01FD0A7808F0007908F100F2018E3064
:10030200FB007B08F3007D08FC007C08F4008331CD
:1003120055237008F8007108F9007208FA00080005
:100322002000A9002908FD007D08A800A51FA92911
:100332002D30FD002908860087017D0881000130EB
:10034200FD007D08A907A409A509A40A0319A50AA5
:100352002508F9002408F8002708FB002608FA00FF
:1003620029088231F3220800700871040319DC297C
:10037200F501F50AF11BC7290130F035F10D890BA2
:10038200BE290130F4007408F507BB297108730215
:10039200031DCD2970087202031CD3297008F202D2
:1003A2007108F33B0130F136F00C890BD42901308E
:1003B200F502031DC7297308F1007208F000080056
:1003C200F40020000E1374080F39F1007108F200D6
:1003D2007408F039F1007108F3000E147308F1008B
:1003E2000430F136890BF229710881313F218131C4
:1003F20020008E151A30890BFC29003220008E1144
:10040200720881313F21813120008E151A30890B0B
:10041200082A003220008E110E1708000630210033
:100422008C0023008C01F03021008D0023008D010F
:10043200A63021008E0023008E016A30210099002F
:1004420022001D159D17203023008E00063021004A
:100452008C0023008C0121000D080F398D00230030
:100462000D080F398D0021000E08B6398E002300C9
:100472000E08B6398E000800F501F6017008710405
:1004820003196C2AF701F70AF11B512A0130F035E2
:10049200F10D890B482A0130F4007408F707452A48
:1004A2000130F535F60D890B522A71087302031DCE
:1004B2005C2A70087202031C632A7008F202710837
:1004C200F33B75140130F136F00C890B642A0130CC
:1004D200F702031D512A7608F1007508F0000800A2
:1004E200F6007603031D912A73087F3EF400740818
:1004F200F9007908F4000430F436890B7D2A740877
:10050200F5007508F70079080F39F4007408F8004F
:100512007708813129218231780881312921080027
:1005220002307606031D08007308BF3EF40074080B
:10053200F9007908F4000430F436890B9D2A740816
:10054200F5007508F70079080F39F4007408F8000F
:1005520077088131292182317808813129210800E7
:10056200003081313F2182313430F300F230890B87
:10057200B82AF30BB82A03308131292182310D3098
:10058200F300FC30890BC32AF30BC32A03308131F9
:10059200292182311D30F3009130890BCE2AF30BD1
:1005A200CE2A00000330813129218231023081318B
:1005B2002921823102308131292182310830813171
:1005C2002921823100308131292182310C3081315F
:1005D2002921823100308131292182310630813155
:1005E200292108002000A3007908A1007808A000B2
:1005F2007B08F1007A08F0002108F3002008F200DD
:1006020082313D22823171082000A1007008A000D1
:100612000130FC007C08A30720082104031DF92AED
:1006220023088600870181010130A3027B08F100C3
:100632007A08F0007908F3007808F2008131B521D8
:1006420082317008FC007C082000A2007B08F100C7
:100652007A08F0007908F3007808F20082313D222E
:1006620082317108F9007008F8000A302000220275
:10067200031C3F2B0730FC007C08A2073030FC0033
:100682007C08A2072208FC002308860087017C0858
:1006920081000130A30278087904031D172B013071
:1006A200FC007C08A3070800730803195D2B72087D
:1006B20071047004031D6E2B0030F0000030F10055
:1006C2000030F20008000130F5007508F307013030
:1006D200F236F10CF00C890B692BFE30720503190E
:1006E200872B642B0130F5007508F3070130F00702
:1006F200003003180130F107003003180130F2070F
:100702000130F236F10CF00C890B822BFF307205AE
:100712000319942B732B0130F3020130F035F10DE4
:10072200F20D890B8F2BF11B9A2B023073020318E7
:100732008C2B7318A22BFF30F0057F30F105FF30B0
:10074200F2050310F30C7308F500F601F7011030FF
:10075200F535F60DF70D890BA92B7508F00476080F
:10076200F1047708F204740803190800F21708006C
:1007720020004008C4004108C5004208C60003101A
:10078200450D460DC7004708CD004D08031DD22B6D
:100792000030C3000030C2000030C1000030C00091
:1007A20008004008C4004108C5004208C6001730CE
:1007B200C636C50CC40C890BD92B4408C7004708A0
:1007C200C800C117FF30C005FF30C1050030C205A7
:1007D2004008C9004108CA004208CB00CC018E3053
:1007E200CD02CD1F102C4D08803A8F3E0318022CEB
:1007F2000030C3000030C2000030C1000030C00031
:1008020008000130CC36CB0CCA0CC90C890B032C66
:100812000130C4004408CD070319292C022C1830DA
:100822004D02031C262C0030C3000030C2000030F1
:10083200C1000030C00008000130C935CA0DCB0D1F
:10084200CC0D890B1E2C0130CD024D08031D1D2C31
:1008520048080319372CC909CA09CB09CC09C90AA6
:100862000319CA0A0319CB0A0319CC0A4C08C3009C
:100872004B08C2004A08C1004908C0000800200015
:10088200D100502C0030D3000C304E2C0030D3005D
:100892000D304E2C0030D3000E30D2005B2C5108AC
:1008A200413A0319432C033A0319472C013A03191D
:1008B2004B2C5B2C10309800970196010C140630DB
:1008C200890B612C003220000C105208860053085C
:1008D20087000130D0004E0A6F2CD035890B6E2C68
:1008E200500801050319662C181452088600530893
:1008F20087000130D0004E0A7F2CD035890B7E2C28
:1009020050080105031D762C18101708D50016088B
:10091200D4005508F9005408F8008131712184315E
:1009220078082000A3007908A4007A08A5004830BE
:10093200A0006B30A1004230A2008431CB2484316C
:1009420020002008B3002108B4002208B5000030BE
:10095200B0000030B1004030B200853174258431DE
:1009620020003008C0003108C1003208C2008331C3
:10097200B92320004108D5004008D4005408013EA4
:10098200D4000030553DD50098015508CF005408D9
:10099200CE00080020002308A6002408A70025088E
:1009A200A8000310270D280DA9002908AE002E0863
:1009B200031DE22C0030A0000030A1000030A20094
:1009C20008002008A6002108A7002208A80003109A
:1009D200270D280DA9002908AF002F08031DF82CA8
:1009E2000030A0000030A1000030A200080000305A
:1009F200AB000030AC000030AD0089302F07A600FC
:100A02002608AE022308A6002408A7002508A8008D
:100A12001030A836A70CA60C890B0A2D2608A900AF
:100A22002908AF002008A6002108A7002208A80074
:100A32001030A836A70CA60C890B1A2D2608A9007F
:100A42002908AF068030A6002608AF05A417FF309C
:100A5200A305FF30A4050030A505A117FF30A005AE
:100A6200FF30A1050030A2051830A6002608AA0012
:100A72000130AB35AC0DAD0D890B3A2D22082502A4
:100A8200031D492D21082402031D492D200823029C
:100A9200031C522D2008A3022108A43B2208A53BD7
:100AA2002B140130A335A40DA50D890B532D013054
:100AB200AA02031D392D2B08F0002C08F1002D0885
:100AC200F2002E08A6002608F3002F08A700270828
:100AD200F4008331552370082000A0007108A100A2
:100AE2007208A200080020003008B6003108B700E2
:100AF2003208B8000310370D380DB9003908BA00B2
:100B02003A08031D8B2D0030B0000030B1000030D8
:100B1200B20008003308B6003408B7003508B80040
:100B22000310370D380DB9003908BF003F08031D07
:100B3200A12D0030B0000030B1000030B20008003A
:100B42003F087B3EB6003608BA073008B6003108C7
:100B5200B7003208B8001030B836B70CB60C890BA3
:100B6200AD2D3608B9003908BF003308B600340885
:100B7200B7003508B8001030B836B70CB60C890B80
:100B8200BD2D3608B9003908BF068030B6003608D8
:100B9200BF05B117B417FF30B305FF30B4050030FD
:100BA200B5050030BB000030BC000030BD0007308E
:100BB200B6003608BE00301CE42D3308BB073408EB
:100BC200BC3D3508BD3D0130B236B10CB00C890BCD
:100BD200E52D0130B335B40DB50D890BEB2D013088
:100BE200BE02031DDC2D0930B6003608BE00301CE3
:100BF200002E3308BB073408BC3D3508BD3D01302B
:100C0200B236B10CB00C890B012E0130BD36BC0CD2
:100C1200BB0C890B072E0130BE02031DF82D3B08C9
:100C2200F0003C08F1003D08F2003A08B600360830
:100C3200F3003F08B7003708F400833155237008EA
:100C42002000B0007108B1007208B20008008231C1
:100C52000F2286314E302000DA00EB30890B2F2E26
:100C6200DA0B2F2E6A3021009900203023008E00EB
:100C7200200020308C060E132100A001A101B60134
:100C8200B701B401B501B801B9011030A200273093
:100C9200A3008231B1228631813121218631F301D3
:100CA200F30A01308231712286310030F50088303A
:100CB200F6008131572186310B302000DB002630CF
:100CC200DA005D30890B632EDA0B632EDB0B632EA9
:100CD20000320D2F21003B08803A2000DA008030DC
:100CE2005A02031D772E653021003A02031CCC2ED6
:100CF20021003D08803A2000DA0080305A02031DAC
:100D0200852E653021003C02031CCC2E2100B4014B
:100D1200B501B601B701813121218631F301F30A10
:100D220001308231712286311030F5008830F600B0
:100D3200813157218631F301F30A02308231712267
:100D42008631A430F5000030F6008131572186311A
:100D52003530F5008830F600813157218631AC30CC
:100D6200F5000030F6008131572186313B30F50025
:100D72008830F60081315721863102302000DB00B5
:100D82000430DA00BA30890BC42EDA0BC42EDB0B26
:100D9200C42E0000BD2F20008C128131212186310A
:100DA200F301F30A01308231712286311F30F500DE
:100DB2008830F600813157218631F301F30A02307F
:100DC200823171228631A430F5000030F600813183
:100DD200572186313530F5008830F60081315721B0
:100DE2008631AC30F5000030F60081315721863172
:100DF2003B30F5008830F6008131572186310230D0
:100E02002000DB000430DA00BA30890B062FDA0B3F
:100E1200062FDB0B062F000020008C160E1301306C
:100E2200CE000030CF004130843140248631200092
:100E32004F082100BB0020004E082100BA000230FA
:100E42002000CE000030CF00413084314024863172
:100E520020004F082100BD0020004E082100BC00E8
:100E62003B082000A50021003A082000A4000A3017
:100E7200A6000030A700A4308131912186312100E3
:100E82003D082000A50021003C082000A4000A30F3
:100E9200A6000030A700AC308131912186312100BB
:100EA2003B08803A2000DA0080305A02031D5C2F92
:100EB200643021003A0203186B2E21003D08803A6B
:100EC2002000DA0080305A02031D6A2F64302100AC
:100ED2003C0203186B2E210036083704031DB92F7C
:100EE200813121218631F301F30A013082317122ED
:100EF20086312A30F5008830F6008131572186315B
:100F0200F301F30A0230823171228631A430F500F6
:100F12000030F6008131572186313530F5008830B6
:100F2200F600813157218631AC30F5000030F600F1
:100F32008131572186313B30F5008830F60081310E
:100F42005721863102302000DB000430DA00BA304B
:100F5200890BA92FDA0BA92FDB0BA92F0000103068
:100F62002100A2002730A3000130B6000030B700F4
:100F72000130B4070030B53D210038083904031DA3
:100F8200D42F01302000CE000030CF004130843118
:100F92004024863120004F082100BB0020004E086B
:100FA2002100BA00E52F02302000CE000030CF0031
:100FB200413084314024863120004F082100BD0099
:100FC20020004E082100BC00B809B9093508803A52
:100FD2002000DA0080305A02031DF22F3C3021003B
:100FE2003402031CF72F2100B601B7010A30210099
:100FF200A0000030A1000D2F20008631282E57348A
:1010020045344C3443344F344D3445342034543415
:101012004F342034553454345334413400344F3433
:101022007534743420346F3466342034523461346D
:101032006E34673465343A342034003444346934CD
:101042007334743461346E34633465343A34203426
:10105200003449346E342034723461346E3467346F
:1010620065343A3420340034203463346D342C3403
:0C10720020340034203463346D3400342A
:020000040001F9
:04000E00E4C9FFDE64
:00000001FF
